{
  "contractName": "Libreria",
  "abi": [
    {
      "constant": true,
      "inputs": [
        {
          "name": "",
          "type": "uint256"
        }
      ],
      "name": "books",
      "outputs": [
        {
          "name": "bookId",
          "type": "uint256"
        },
        {
          "name": "owner",
          "type": "address"
        },
        {
          "name": "temporalOwner",
          "type": "address"
        },
        {
          "name": "purchasePrice",
          "type": "uint256"
        },
        {
          "name": "lendingPrice",
          "type": "uint256"
        }
      ],
      "payable": false,
      "stateMutability": "view",
      "type": "function"
    },
    {
      "constant": true,
      "inputs": [],
      "name": "maxAmmountOfBooks",
      "outputs": [
        {
          "name": "",
          "type": "uint256"
        }
      ],
      "payable": false,
      "stateMutability": "view",
      "type": "function"
    },
    {
      "constant": true,
      "inputs": [],
      "name": "_owner",
      "outputs": [
        {
          "name": "",
          "type": "address"
        }
      ],
      "payable": false,
      "stateMutability": "view",
      "type": "function"
    },
    {
      "inputs": [],
      "payable": false,
      "stateMutability": "nonpayable",
      "type": "constructor"
    },
    {
      "constant": false,
      "inputs": [
        {
          "name": "_id",
          "type": "uint256"
        },
        {
          "name": "pPrice",
          "type": "uint256"
        },
        {
          "name": "lPrice",
          "type": "uint256"
        }
      ],
      "name": "addBook",
      "outputs": [],
      "payable": false,
      "stateMutability": "nonpayable",
      "type": "function"
    },
    {
      "constant": false,
      "inputs": [
        {
          "name": "_id",
          "type": "uint256"
        }
      ],
      "name": "buyBook",
      "outputs": [],
      "payable": true,
      "stateMutability": "payable",
      "type": "function"
    },
    {
      "constant": false,
      "inputs": [
        {
          "name": "_id",
          "type": "uint256"
        }
      ],
      "name": "lendBook",
      "outputs": [],
      "payable": true,
      "stateMutability": "payable",
      "type": "function"
    },
    {
      "constant": false,
      "inputs": [
        {
          "name": "_id",
          "type": "uint256"
        }
      ],
      "name": "returnBook",
      "outputs": [],
      "payable": true,
      "stateMutability": "payable",
      "type": "function"
    }
  ],
  "bytecode": "0x608060405234801561001057600080fd5b50336000806101000a81548173ffffffffffffffffffffffffffffffffffffffff021916908373ffffffffffffffffffffffffffffffffffffffff160217905550610742806100606000396000f3fe6080604052600436106100705760003560e01c8063a9bd70581161004e578063a9bd705814610194578063b2bdfa7b146101bf578063c718dbb014610216578063ca5140c91461026557610070565b80634fb9aac21461007557806368744046146100a35780636ee2656614610166575b600080fd5b6100a16004803603602081101561008b57600080fd5b8101908080359060200190929190505050610293565b005b3480156100af57600080fd5b506100dc600480360360208110156100c657600080fd5b810190808035906020019092919050505061037e565b604051808681526020018573ffffffffffffffffffffffffffffffffffffffff1673ffffffffffffffffffffffffffffffffffffffff1681526020018473ffffffffffffffffffffffffffffffffffffffff1673ffffffffffffffffffffffffffffffffffffffff1681526020018381526020018281526020019550505050505060405180910390f35b6101926004803603602081101561017c57600080fd5b81019080803590602001909291905050506103f4565b005b3480156101a057600080fd5b506101a9610504565b6040518082815260200191505060405180910390f35b3480156101cb57600080fd5b506101d4610509565b604051808273ffffffffffffffffffffffffffffffffffffffff1673ffffffffffffffffffffffffffffffffffffffff16815260200191505060405180910390f35b34801561022257600080fd5b506102636004803603606081101561023957600080fd5b8101908080359060200190929190803590602001909291908035906020019092919050505061052e565b005b6102916004803603602081101561027b57600080fd5b8101908080359060200190929190505050610688565b005b6001600082815260200190815260200160002060010160009054906101000a900473ffffffffffffffffffffffffffffffffffffffff1673ffffffffffffffffffffffffffffffffffffffff166108fc60016000848152602001908152602001600020600401549081150290604051600060405180830381858888f19350505050158015610325573d6000803e3d6000fd5b50336001600083815260200190815260200160002060020160006101000a81548173ffffffffffffffffffffffffffffffffffffffff021916908373ffffffffffffffffffffffffffffffffffffffff16021790555050565b60016020528060005260406000206000915090508060000154908060010160009054906101000a900473ffffffffffffffffffffffffffffffffffffffff16908060020160009054906101000a900473ffffffffffffffffffffffffffffffffffffffff16908060030154908060040154905085565b80600160008281526020019081526020016000206003015434101561041857600080fd5b6001600083815260200190815260200160002060010160009054906101000a900473ffffffffffffffffffffffffffffffffffffffff1673ffffffffffffffffffffffffffffffffffffffff166108fc60016000858152602001908152602001600020600301549081150290604051600060405180830381858888f193505050501580156104aa573d6000803e3d6000fd5b50336001600084815260200190815260200160002060010160006101000a81548173ffffffffffffffffffffffffffffffffffffffff021916908373ffffffffffffffffffffffffffffffffffffffff1602179055505050565b601481565b6000809054906101000a900473ffffffffffffffffffffffffffffffffffffffff1681565b8280600160008381526020019081526020016000206000015414156105bb576040517f08c379a00000000000000000000000000000000000000000000000000000000081526004018080602001828103825260138152602001807f426f6f6b20616c7265616479206578697374730000000000000000000000000081525060200191505060405180910390fd5b8360016000868152602001908152602001600020600001819055506000809054906101000a900473ffffffffffffffffffffffffffffffffffffffff166001600086815260200190815260200160002060010160006101000a81548173ffffffffffffffffffffffffffffffffffffffff021916908373ffffffffffffffffffffffffffffffffffffffff16021790555082600160008681526020019081526020016000206003018190555081600160008681526020019081526020016000206004018190555050505050565b6001600082815260200190815260200160002060010160009054906101000a900473ffffffffffffffffffffffffffffffffffffffff166001600083815260200190815260200160002060020160006101000a81548173ffffffffffffffffffffffffffffffffffffffff021916908373ffffffffffffffffffffffffffffffffffffffff1602179055505056fea165627a7a72305820171b96ad2cdbcd8fc6a166d7db9f86a1d68f1d2b79c4553dde6fb7b599d589b60029",
  "source": "pragma solidity >=0.4.21 <0.6.0;\n\ncontract Herencia {\n\n\n}\n\n\ncontract Libreria {\n\nuint256 public constant  maxAmmountOfBooks = 20;\n\naddress payable public _owner;\n\nstruct Book {\n        uint256 bookId;\n        address payable owner;\n        address temporalOwner;\n        uint256 purchasePrice;\n        uint256 lendingPrice;\n    }\n\n// mapping\nmapping (uint256 => Book) public books;\n\nconstructor() public {\n        _owner = msg.sender;\n    }\n\n\n// modifiers\nmodifier checkId (uint256 _id) {\n        require(books[_id].bookId != _id, \"Book already exists\");\n        _;\n\n}\n\n modifier checkPurchasePrice (uint _id) {\n        require(msg.value >= books[_id].purchasePrice);\n        _;\n\n} \n\n modifier checkLendingPrice (uint _id) {\n        require(msg.value >= books[_id].lendingPrice);\n        _;\n\n} \n\n// Funcion para agregar un libro dentro del array de libros.\n function addBook(uint256 _id, uint256 pPrice, uint256 lPrice) public checkId(_id) {\n    \n        books[_id].bookId = _id;\n        books[_id].owner = _owner;\n        books[_id].purchasePrice = pPrice;\n        books[_id].lendingPrice = lPrice;\n    }\n \n\n\n// Funcion para la compra de un libro. Se requiere el id del libro y el precio de compra.\nfunction buyBook(uint _id) public payable checkPurchasePrice(_id) {\n    \n    books[_id].owner.transfer(books[_id].purchasePrice);\n    books[_id].owner = msg.sender;\n\n    \n}\n    \n // Funcion para efectuar el prestamo de un libro. Se requiere el id del libro y el precio de alquiler.\nfunction lendBook(uint _id) public payable {\n    \n    books[_id].owner.transfer(books[_id].lendingPrice);\n    books[_id].temporalOwner = msg.sender;\n\n    }\n\n // Funcion para efectuar la devolución de un libro. Se requiere el id del libro.\nfunction returnBook(uint _id) public payable {\n    books[_id].temporalOwner = books[_id].owner;\n\n\n    }\n    \n    \n}",
  "sourcePath": "/Users/esteban.abete/Disenio_y_Desarrollo/poc_libreria/contracts/Libreria.sol",
  "compiler": {
    "name": "solc",
    "version": "0.5.8+commit.23d335f2.Emscripten.clang"
  },
  "schemaVersion": "3.0.14",
  "updatedAt": "2019-09-22T15:35:49.405Z",
  "devdoc": {
    "methods": {}
  },
  "userdoc": {
    "methods": {}
  }
}